:400000000080002011000000552700005527000008B5044B1A6803F53F5302331A6002F0B9FB00BFFA46004010B5054C237833B9044B13B10448AFF300800123237010BDC9
:400040004881FF1F0000000098320000084B10B51BB108490848AFF300800848036803B910BD074B002BFBD0BDE81040184700BF000000004C81FF1F98320000C880FF1F6E
:40008000000000000378022B44D14378012B41D110B50446C378042B28D18378032B25D8DFE803F0020A1018002002F027FC0121194802F027F819E0184A0021164802F06F
:4000C000C7F813E0012002F019FC0121124802F009F80BE0124A00210F4802F0B9F802F019FCB0FA80F0400902F008FCE378052B0FD1A378012B04D10A4A0021064802F0B9
:40010000A7F8A378032B04D1064A0021024802F09FF810BD704700BFFC82FF1FA8320000BC320000CC3200002DE9F04F89B062B64FF47F0305934FF47F4306934FF0FF0B2F
:40014000CDF81CB002F08AFB00F018FA02F04CF9322002F0B5FB002000F0AEFCC24B009340F2DF1340F21F320021084600F044FD0A2002F0A5FB012002F0D4FBBB4D284695
:4001800000F054FC002000F061FDB94C204600F057FDB84E4FF4F0734FF44872B649304602F056FC32460521084600F02BFF284600F03CFC002000F049FD204600F040FDFB
:4001C000AE4A1721052000F01DFFAD4CAD4B0A22AD49204601F01EFAAC49204601F020FB2946204601F02EFB40F21311204601F04DFBC821204601F067FB40F2D5212046A1
:4002000001F082FB4FF4E171204601F09DFB3C2302936E2601960A2500952B4600229C49204601F013FF8223029301964FF0500ACDF800A02B4601229649204601F006FF6A
:40024000C82302930196962300932B4602229249204601F0FBFE4FF0CA09CDF8089040F26D18CDF8048064270097AA2303228B49204601F0EBFE8A4E32460021204601F0FC
:400280007FFF5A460021204601F056FF854A0021204601F063FF32460121204601F070FF4FF47F020121204601F046FF7E4A0121204601F053FF32460221204601F060FFE4
:4002C00000220221204601F037FF784A0221204601F044FFCDF808A04FF4DC7301930095782300227249204601F05CFF714A0021204601F0BFFF704A0021204601F0A8FF91
:4003000000221146204601F091FF12220021204601F0C2FFCDF80890CDF804800097AA2300226649204601F0C9FF654A0021204601F0F4FF204601F0C5F901F029FE44F675
:40034000B25301935F4B00934FF49773D722C821142000F0F9FA4FF47F0300939C237C223121032000F048FC059E00969B237B223221042000F068FB4FF47F4300939C234E
:40038000F72231217E2000F037FC069D00959B23F62232217F2000F057FBFF2300939C234FF4B9723121F92000F026FC079C00949B2340F271123221FA2000F045FB42489F
:4003C00000F034FB002000F041FC6FF07F4000F037FC3E4A5A214FF4C87000F013FE01F0D7FDC82002F06CFA360A05962D0A0695240A079416B94FF47F03059315B94FF419
:400400007F03069314B94FF47F03079302F06EFA002865D1902001F095FF902001F092FF2B4B1880D02001F08DFFD02001F08AFF284B18802849294801F0DEFF40B10122A2
:40044000254BB3F90010254BB3F9000001F0DAF8064800F0EBFA002000F0F8FB4FF47F0000F0EEFB4CE000BFD3D3D300B034000000FFFF006483FF1FEC3200000033000014
:40048000FC82FF1F85000000B881FF1F183300009881FF1F8C83FF1F2C84FF1F4083FF1FC43400003833000044330000503300007C81FF1F9C340000CC3200002484FF1F5A
:4004C0009C32000018210100883400005C3300009481FF1F6283FF1FF882FF1F6083FF1F00224FF0FF31084601F08CF81A4800F09DFA002000F0AAFB4FF47F4000F0A0FB5B
:40050000164C174B1B88174A12881749204602F09FFA224605214FF4AF7000F073FD134B1B88134A12881349204602F091FA224617214FF4AF7000F065FD01F0C9FF02462C
:400540000D49204602F084FA22460D214FF4167000F058FDFFE600BFB03400006483FF1F6083FF1F6283FF1F6C330000F882FF1F9481FF1F7C3300008C33000010B56420F9
:4005800002F09EF900240CE0002002F0D7F90A2002F096F9012002F0D1F90A2002F090F90134042CF0DD0121002002F063F90A2002F086F9052002F083F90121002002F06F
:4005C00059F90A2002F07CF9052002F079F90121002002F04FF90A2002F072F9052002F06FF9E221002002F045F92321012002F041F90221012002F03DF90421012002F085
:4006000039F9E021002002F035F90121084602F031F90A2002F054F9E021002002F02AF90321012002F026F90A2002F049F90121002002F01FF90A2002F042F9E62100209E
:4006400002F018F90421012002F014F96F21012002F010F94621012002F00CF9B021002002F008F92721012002F004F90021012002F000F90321012002F0FCF81F21012012
:4006800002F0F8F80121084602F0F4F8DF21012002F0F0F80021012002F0ECF8B421002002F0E8F80321012002F0E4F8A021012002F0E0F80021012002F0DCF82E210120F9
:4006C00002F0D8F83021012002F0D4F80021012002F0D0F80F21012002F0CCF80021012002F0C8F8B621002002F0C4F80221012002F0C0F80D21012002F0BCF80021012047
:4007000002F0B8F81021012002F0B4F81021012002F0B0F80021012002F0ACF81921012002F0A8F83621002002F0A4F80021012002F0A0F8F021002002F09CF800210120AC
:4007400002F098F8052002F0BBF82921002002F091F80A2002F0B4F84FF4F0734FF448720849094800F02AF90849012000F0E4FE0749002000F0E0FE0649032000F0DCFE6A
:4007800010BD00BFF5070000AC83FF1F3D080000E10800004909000030B583B015461C46030A8DF804308DF805000B0A8DF806308DF807102A21002002F05CF804220DEB84
:4007C0000201012002F064F82B0A8DF804308DF80550230A8DF806308DF807402B21002002F048F804220DEB0201012002F050F803B030BD00B583B0130C8DF80430130A74
:400800008DF805308DF8062083B2B3F5487F12D2002910DBB1F5F07F0DDA0A464B1C411CFFF7BAFF2C21002002F024F8032201A9012002F02DF803B05DF804FB2DE9F04128
:4008400082B0089C250C8DF80450250A8DF805508DF8064086B2B6F5487F2DD200292EDBB1F5F07F2EDA94B2B4F5487F2DD2002B2EDBB3F5F07F2EDA1D4690460F460A46E6
:400880004146FFF789FF2C21002001F0F3FF0DE0BCB206E0032201A9012001F0F9FF0134A4B2681C8442F5DB0136B6B208F101039E42EDDB002010E04FF0FF300DE04FF036
:4008C000FF300AE04FF0FF3007E04FF0FF3004E04FF0FF3001E04FF0FF3002B0BDE8F08110B582B084B2B4F5487F17D2002918DBB1F5F07F18DA94B2B4F5487F17D2002B40
:4009000018DBB3F5F07F18DA904201D0994217D1049C0094FFF792FF002013E04FF0FF3010E04FF0FF300DE04FF0FF300AE04FF0FF3007E04FF0FF3004E04FF0FF3001E080
:400940004FF0FF3002B010BD38B5BDF8144085B2B5F5487F1FD2002920DBB1F5F07F20DA95B2B5F5487F1FD2002B20DBB3F5F07F20DA15460A462946FFF70EFF2C2100205E
:4009800001F078FF04EB440292B20499012001F07FFF002038BD4FF0FF3038BD4FF0FF3038BD4FF0FF3038BD4FF0FF3038BD4FF0FF3038BD4FF0FF3038BD00BF01608280A0
:4009C000C380042101844184053A12B28284053B1BB2C3848283C383012380F8443080F84530002303630387C3864387838703640C4A02656FF07F428264C3640361436117
:400A0000836109E003F10B02002140F8321000EBC20211710133DBB2032BF3D9024B186001207047EF8B5E006481FF1F30B4054B1C68303405460FCD0FC42B68236030BCD1
:400A4000704700BF6481FF1F2DE9F04383B081460D46164698460A9F824201DA91460646A84502DA2B4645469846124B1B6893F8642012F0020F17D01C6E00974346324614
:400A800029464846A04778B910E00A4B1B681B683A46294620469847013424B200E04C46A642F2DA01352DB2A845F8DA03B0BDE8F08300BF6481FF1F00B583B0084B1B6852
:400AC000B3F90420B3F90630013B013A00901BB212B200210846FFF7B7FF03B05DF804FB6481FF1F08B5024B1B681B68984708BD6481FF1F2DE9F04F85B006460F4615464A
:400B00001C463C4B1B6893F85C2012F0020F08D0D3F858800E9B009323462A46C047002865D0AA1B12B2E31B1BB282EAE27AAAEBE27A0FFA8AF883EAE37BABEBE37B0FFADB
:400B40008BF9002A02DD0122029202E04FF0FF320292002B02DD0123039302E04FF0FF3303934FEA69054FEA6804224B1B681B680E9A394630469847C8451ADA0024DDF869
:400B80000C8032E05C44A3B21CB2A04505DCCAEB030424B2039B1F443FB24E4436B2154B1B681B680E9A39463046984701352DB202E00025DDF808904545E3DB17E05544CD
:400BC000ABB21DB2A94505DCCBEB03052DB2029B1E4436B247443FB2064B1B681B680E9A394630469847013424B24C45E7DB05B0BDE8F08F6481FF1F2DE9F04182B08046AE
:400C00000F4616461C46089D00950B46FFF772FF00952346324621464046FFF76BFF00952346424639464046FFF764FF00952346324639463046FFF75DFF02B0BDE8F08183
:400C4000014B1B68986470476481FF1F014B1B68D86470476481FF1F024B1B68B3F90400704700BF6481FF1F024B1B68B3F90600704700BF6481FF1F2DE9F04F87B0044660
:400C8000049111460293DDF84480A0F1B0034C2B37D8DFE803F033363636363136363636363636363636363636362F363636363636363636363636363636363627363636D8
:400CC00036362B363636363636362D3636363636363636363636363636363636353636363636290099240CE081240AE09A2408E0842406E08E2404E0E62402E0F82400E0CA
:400D00009424A2B2B8F80A309A42C0F06781B8F80C00824200F262818AB20192B8F9062090B20590002800F059814FEAD00910F0070F01D009F10109D8F8100010B1E51AE8
:400D4000405D0590A748006890F86C5015F0020F00F09C80856EB8F90830019A1A44531E059E04983218013A1BB212B2A847074698F80430002B38D1B8F80A30E41AB8F91C
:400D8000083004FB03F303FB09F30022019226E0D8F8002003F1010BD65C00240CE016F0010F02D00298B84701E01098B8477608013DADB20134A4B2072C01D8002DEED178
:400DC0000AF1010A1FFA8AFA5B4602E0059D4FF0000ACA45DCD3019A013292B20192B8F9082001999142F1DBF8E0012B40F0F680B8F80A30E41AB8F9083004FB03F3B8F94C
:400E0000062003FB02F30026DDF814B0029DDDF8409036E0D8F8002003F1010AD25CEBB25FFA89F0C2F5807101FB00F002FB0303C3F3072005F47F4309F47F4E0EFB01FEF3
:400E400003FB02E31B0A03F47F43034305F47F0009F47F0E0EFB01F100FB0210000A00F47F001843B8470134A4B2534600E000245C45CFD3B8F90620CBEB02021344013600
:400E8000B6B2B8F908209642F1DBA7E098F8041000294AD1E31AB8F9082003FB02F303FB09F3002203923AE0BDF81060059D4FF0000A2AE0D8F8002003F1010BD75C0024E9
:400EC0001AE017F0010F08D0464B1B681B68029ABDF9041030B2984707E0424B1B681B68109ABDF9041030B298477F080136B6B2013DADB20134A4B2072C01D8002DE0D164
:400F00000AF1010A1FFA8AFA5B46CA45D2D3019A013292B20192039A013292B20392B8F9082003999142BFDB58E0012956D1E41AB8F9083004FB03F303FB02F30027DDF835
:400F400014B0029EDDF8409044E0BDF81050002433E0D8F8002003F1010AD35CF2B25FFA89F1C3F5807000FB01F103FB0212C2F3072206F47F4109F47F4E0EFB00FE01FB57
:400F800003E1090A01F47F41114306F47F0209F47F0E0EFB00F002FB0302120A02F47F02104B1B681B680A43BDF9041028B298470135ADB20134A4B253465C45C9D3B8F9C6
:400FC0000620CBEB02021344019A013292B201920137BFB2B8F908209742B6DB07B0BDE8F08F00BF6481FF1F10B582B0044C246830340194049C0094FFF73EFE02B010BDDB
:401000006481FF1F2DE9F04383B080460F461546064633E0013583B21B4A1468628F93422CD3A18F8B4229D80A2802D1B4F9046024E0236C1BB1821A13F8029001E094F832
:40104000369006EB0902B4F90430013B9A4207DDB4F9382094F9453013441F443FB24646A36CE26C00923A463146FFF7BDFF064B1B6893F944304B441E4436B22878002886
:40108000C8D103B0BDE8F0836481FF1F2DE9F04F89B0B0F908300493B0F90A40B0F90C300593B0F90E5090F818A04368B3F906200392B3F908B0B0F91A90B0F91C200692C6
:4010C00007681B68002B00F08980002F00F086802B1B5B45C0F282803B46012104E00A2A01D1013189B201331A78002AF7D11AF0300F0DD02B1B01339BB20BFB11339BB2E5
:401100000139069A01FB12331BB2002B01DA65E000231AF0100F00D05B10064623441BB2CDF81CB09B463846002415E099B272685589A94203D3B2F80CE0714501D9013051
:401140000AE0126912B15B1BD35C01E0BDF80C304B441C44A4B2013003780BB10A2BE5D11FFA89F8C8EB04039BB2BDF81040059A121B013292B2D31A1BB2002B2EDB1AF057
:40118000010F04D11AF0020F02D05B1000E000231C4424B217E0013705B3736801937369009333695A4621462846FFF765FD73681A691AB15B89ED1A515D01E0BDF80C1017
:4011C000414421440CB23D780A2DE4D10137079B069A13445B440FFA83FBA4E709B0BDE8F08F00BF10B4002309E041685A018C188A5C02F00302032A06D00133DBB20278F5
:401200009342F2D3002000E0204610BC704700BF70B400230FE045685C012E192C5D04F00304022C05D1347E8C4202D1747E944206D00133DBB20478A342ECD3002000E08B
:40124000304670BC704700BFF0B52E4B1B68B3F90A60B3F90C7093F808E0057800234DE041685A018C188A5C617802F04B020A2A41D1BEF1000F27D0B6F1FF3F24D011F0BC
:40128000400F03D101F0670141F0050101F0DF02B4F908C0664514DBB4F90CC0664510DCB4F90AC067450CDBB4F90EC0674508DC42F0200211F0400F03D101F0DB0242F0FD
:4012C000220242F0400116E011F0400F13D011F0200F07D011F0020F01D041F0800141F0080101E041F0100111F0400F01D041F0010101F0B901617001339BB2AB42AFD375
:40130000F0BD00BF6481FF1F2DE9F843074690F8008000241FE07A686301D618D55C96F8019005F00303022B13D115F0200F03D0736831463846984715F0080F09D015F035
:40134000800F06D019F0410F03D073683146384698470134A4B24445DDD3BDE8F88300BF70B582B00546134B00249C6002221A7106781AE06A686301D1180191D35C03F070
:401380000303022B0FD18B7E6BB10A4801AA82600A7E42714A7E8271C3712B6C043098470022019B9A760134A4B2B442E2D302B070BD00BF6481FF1F2DE9F04F87B081464A
:4013C0000F4614469846109D1FFA82FB0BF1FF331BB21A462B6800930B460392FFF78AFB1FFA87FA0AF1010319B21FFA88F6731E18B26B680093049003464A4602914846F1
:40140000FFF778FBAB6800934346224641464846FFF770FBEB680093049B224639462046FFF768FB1FFA89F404F101090FFA89F9ABF102031FB22B69009302990B460597CA
:401440003A464846FFF756FB0AF102073FB2A6F102080FFA88F86B69009343464A4639464846FFF747FBAB690093DDF810E07346039A71464846FFF73DFBEB69009343468E
:40148000039802460299FFF735FB023424B2ABF103022B6A00933B4612B239462046FFF729FB033E36B20AF103016B6A00933346224609B22046FFF71DFBAB6A009343469E
:4014C000DDF814904A4641462046FFF713FBEB6A009333464A4639464846FFF70BFB07B0BDE8F08F00B583B002238DF803308DF800300B7E8DF801304B7E8DF80230019152
:40150000036C6846984703B05DF804FB00B583B003238DF8033002238DF800300B7E8DF801304B7E8DF802300191036C6846984703B05DF804FB00BF032808D8044B1B6818
:401540000B3043F8301003EBC0000323037170476481FF1F2DE9F04782B00E46116800294BD081461746264B1B6893F8742012F0020F13D07A7A012A10D11C6FBD88F888A6
:40158000831905EB090200FB05F080B2019000911BB212B231464846A04770B33B7A102B2BD13B684FF0000824E09D1C1B88D90AC3F34712DBB29200D2B2120242EAC142A2
:4015C000DB00DBB200F1010A0FFA8AFA1A433146FFF788FA013424B22B46504601E048460024BA889442E0DB013636B208F101080FFA88F8FA889045F1DB02B0BDE8F0879B
:401600006481FF1F024B1B68588199811A7270476481FF1F002846D0F8B50746002945D0002A46D0002007E044010D1903260E550026EE610130C0B29042F5D33C461E4652
:401640003A70796002233B720025FD601A4B3B61BD82FD82FFF700FB01383883FFF704FB013878833E6403233B773D62134B1B6813B130337B6201E000237B62022384F846
:40168000283084F82930112384F82A306FF07F43E362FF2222636363094BA3630F2384F83C300020F8BD4FF0FF3070474FF0FF30F8BD4FF0FF30F8BDF0F0F0006481FF1F9A
:4016C0008080800050B1037A43F0280323F040030372044B1B681861002070474FF0FF30704700BF6481FF1F2DE9F04782B00446884617469946BDF928A0FFF7ADFA013893
:4017000005B2FFF7B1FA002C6AD0013806B2217A11F0020F67D0B8F1000F67DB002F68DB4D4569DB56456ADBC8EB09031BB2092B68DDBBB2C3EB0A0212B2092A65DDA4F8F3
:401740001480E782A4F81890A4F81AA011F0080F5ED0324A126851698C425BD147B1013B126D00921BB22A4600210846FFF76CF9B4F91A10013109B28E4208DB274B1B682A
:401780001B6D009333462A460020FFF75DF9B4F9142062B1214B1868B4F91A30013AB4F91610006D009012B20020FFF74DF9B4F91800013000B285420ADB184B1A68B4F9D1
:4017C0001A30B4F91610126D00922A46FFF73CF9237A03F0BF0343F02003237200201AE04FF0FF3017E04FF0FF3014E04FF0FF3011E04FF0FF300EE04FF0FF300BE04FF0AF
:40180000FF3008E04FF0FF3005E04FF0FF3002E0002000E0002002B0BDE8F0876481FF1F48B1037A13F0020F08D0016243F060030372002070474FF0FF3070474FF0FF30C3
:40184000704700BFC0B10246037A13F0020F16D010B443F060030372416290F83C40B1F90810481C84420DDC023182F83C1023F040031372002006E04FF0FF3070474FF039
:40188000FF307047002010BC704700BF98B1027A12F0020F12D010B582B08182B0F91830B0F91620B0F91A400094FFF71DFFB0F1FF3F06D106E04FF0FF3070474FF0FF3084
:4018C0007047002002B010BDA0B1027A12F0020F13D010B582B00A46C182B0F91830B0F91410B0F91A400094FFF7FEFEB0F1FF3F06D106E04FF0FF3070474FF0FF30704718
:40190000002002B010BD00BFA0B1037A13F0020F13D010B582B00B460183B0F91620B0F91410B0F91A400094FFF7DEFEB0F1FF3F06D106E04FF0FF3070474FF0FF307047BD
:40194000002002B010BD00BFA0B1027A12F0020F13D010B582B00C464183B0F91830B0F91620B0F914100094FFF7BEFEB0F1FF3F06D106E04FF0FF3070474FF0FF30704770
:40198000002002B010BD00BF48B30346027A12F0020F27D070B4B0F914500D80B0F916404C80B0F918008880B3F91A20CA801E7F16F0010F07D003350D8003344C800338F0
:4019C0008880033ACA801A7F12F0020F0DD093F83C204B88134401334B80002006E04FF0FF3070474FF0FF307047002070BC7047F0B58DB0CD694B7813F0010F27D013F084
:401A0000800F05D001228A760A7842F020020A7013F0020F0AD02B7843F001032B700B7843F020030B7004238B760CE02B7813F0010F08D023F001032B700B7843F02003EB
:401A40000B7005238B764B7823F001034B700B7813F0200F00F0DE800C46064613F0080F00F0C48013F0400F04D12B7813F0020F00F08F800AA93046FFF786FFB4F91030D0
:401A8000BDF828703B442381B4F91210BDF82A0001446181B4F914203A4412B2A281B4F9163003441BB2E381B6F91A108B4200F3B180B6F918309A4200F3AC802146304697
:401AC000FFF710FD6B7813F0010F01D0032700E00127AB6807936B6806932B7813F0010F0FD06B7813F0020F04D06B680793AB68069306E013F0040F03D02B690793EB6808
:401B000006936B7813F0100F16D1B4F908E0B8B2B4F90A10B4F90C20B4F90E30C0EB030C121A01447044079B00930FFA8CF312B209B200B2FEF788FFB4F90820BBB21A44AD
:401B4000ADF81020B4F90A201A44ADF81220B4F90C20D21AADF81420B4F90E20D31AADF816302B7E8DF820306B6903930223ADF82230ADF82430EB690CA840F8283DFFF79B
:401B800085FA237823F04003237021463046FFF7BDFC6B7813F0080F38D113F0010F12D0B4F90800B4F90A10B4F90C20B4F90E302D7815F0010F01D0174D00E0174D009593
:401BC000FFF7FAFB22E0B4F90800B4F90A10B4F90C20B4F90E302E7816F0010F01D02D6900E0ED680095FFF707F80FE06B7813F0100F0BD1B1F90E30B1F90C20B1F90A1084
:401C0000B4F9080035690095FEF71EFF237823F0200323700DB0F0BD98330000C8330000F0B58DB0CE690B7813F0200F77D00C46054613F0080F62D013F0400F6BD00AA9D8
:401C4000FFF7A2FEB4F91030BDF828703B442381B4F91210BDF82A0001446181B4F914203A4412B2A281B4F9163003441BB2E381B5F91A108B4252DAB5F918309A424EDA20
:401C800021462846FFF72EFC37690797F3680693B4F90E30B4F90C20B4F90A10B4F908000097FEF7D1FEB4F90830ADF81030B4F90A30ADF81230B4F90C30ADF81430B4F94B
:401CC0000E30ADF81630337D8DF820307368039396F91530ADF8223096F91630ADF8243033680CA840F8283DFFF7D0F9237823F04003237021462846FFF708FC0BE0B1F999
:401D00000E30B1F90C20B1F90A10B4F908002D690095FEF799FE237823F0200323700DB0F0BD00BFF0B585B0CE690B7813F0200F4AD00C46054613F0080F35D013F0400FE4
:401D40003ED002A9FFF720FEB4F810C0BDF808700CEB070000B22081638ABDF80AE003EB0E0109B2618132689288624417443FB2A7813268D288134473441BB2E381B5F9C7
:401D80001A20934220DAB5F918309F421CDA32682AB1337913F0010F01D0FFF7DBFB237823F0400323700BE0B1F90E30B1F90C20B1F90A10B4F908002D690095FEF744FE74
:401DC000237823F02003237005B0F0BD002863D00346027A12F0020F61D02DE9F0418AB0B0F91450B0F91680B0F91860027F12F0010F07D003352DB208F103080FFA88F8BD
:401E0000033E36B2294A12685269934204D11A6B0792DA6A069203E09A6B07925A6B06921C4693F83C301FFA88F73B44013B079A00921BB2324641462846FEF705FE236AB1
:401E40000293636A0393EB1CADF81030ADF81280ADF8146094F83C303B44013BADF8163094F82A308DF8203094F92830ADF8223094F92930ADF8243002A8FFF707F994F8EE
:401E80003C10394409B20A4B00930B4632462846FEF730FE002005E04FF0FF3070474FF0FF3070470AB0BDE8F08100BF6481FF1FA0A0A0002DE9F04182B0B0F91460B0F95C
:401EC0001650B0F91870B0F91A80037A03F0DF03037213F0080F4AD00446027F12F0010F14D013F0400F11D1274B009343463A4629463046FFF760FA033636B203352DB29D
:401F0000033F3FB2A8F103080FFA88F8237F13F0020F0FD02046FFF759FF94F83C301D4401352DB2237A13F0400F03D023F04003237226E02369009343463A4629463046CA
:401F4000FEF782FD267800230EE060685901425C02F00305022D05D112F0080F02D042F06002425401339BB2B342EED309E0074B1B681B6D009343463A4631463046FEF76F
:401F800063FD02B0BDE8F081583400006481FF1F10B52D4B1B6893F8542012F0010F03D022F0010283F854201A695869824231D082B398615A6108B3037F13F0020F1DD092
:401FC000037A13F0080F19D0B0F91410B2F91430994211D1B0F91810B2F9183099420BD1B0F91610B2F91630994205D1B0F91A10B2F91A30994201D0FFF7E8FE124B1A68CD
:4020000051690B7A23F040030B725269137A43F0280313720C4B1B685C699CB1237A13F0200F02D02046FFF745FF237A13F0080F08D02046FFF708F92046FFF765F920462A
:40204000FFF78EF910BD00BF6481FF1FF8B505460C4616461F46FFF7C5F8002838D00346002222702A69A260EA6862602A692261EA68E2600122627012222276164A12687B
:4020800012B13032626101E000226261134AE261134A5A600020587001221A7698761F82BDF918205A82BDF91C209A82BDF92020DA824FF6FF721A815A819A81DA815E76D1
:4020C0001A7842F0CA02DC6122F001021A70F8BD4FF0FF30F8BD00BF6481FF1F14210100F119000008B50A460121FFF791F828B1037843F068030370002008BD4FF0FF3034
:4021000008BD00BF08B50A460121FFF781F878B10346C1690A7822F001020A700020587098761A7802F0F70242F020021A7008BD4FF0FF3008BD00BF10B514460A46012137
:40214000FFF766F838B1C2695460027842F060020270002010BD4FF0FF3010BD10B514460A460121FFF754F838B1C269D461027842F060020270002010BD4FF0FF3010BDD7
:4021800010B514460A460121FFF742F838B1C2695461027842F060020270002010BD4FF0FF3010BDF8B505460C4616461F46FFF719F8002833D0034600222260194A1268E6
:4021C00012B13032626001E00022626000202072EA68E2602A692261122222756075A075114A5A60587002221A7698761F82BDF918205A82BDF91C209A82BDF92020DA82B8
:402200004FF6FF721A815A819A81DA815E761A7842F04A02DC6122F001021A70F8BD4FF0FF30F8BD6481FF1F211C000010B514460A460221FEF7ECFF38B1C269D4600278F0
:4022400042F060020270002010BD4FF0FF3010BD10B514460A460221FEF7DAFF38B1C2691460027842F060020270002010BD4FF0FF3010BD10B514460A460221FEF7C8FF52
:4022800038B1C2695460027842F060020270002010BD4FF0FF3010BD10B514460A460221FEF7B6FF38B1C2691475027842F060020270002010BD4FF0FF3010BD70B50C46B6
:4022C00015461E46FEF78EFF18B303460020206001222271104A5A60587003221A7698761E82BDF910205A82BDF914209A82BDF91820DA824FF6FF721A815A819A81DA8140
:402300005D761A7842F04A02DC6122F001021A7070BD4FF0FF3070BD251D000010B514460A460321FEF774FF48B1C269146001211171027842F060020270002010BD4FF0F1
:40234000FF3010BD38B50446002000F023FBE4B2002000F013FB002519E014F0800F03D0012000F0FFFA02E0002000F0FBFA002000F004FB0A2000F01BFB012000F0FEFA8B
:402380000A2000F015FB6400E4B20135EDB2072DE3D9012000F0F2FA0A2000F009FB002000F0ECFA0A2000F003FB0024254613E06400A4B2012000F0E1FA0A2000F0F8FAD7
:4023C000002000F0DBFA0A2000F0F2FA00F0C2FA204384B20135EDB20B2DE9D9012000F0D9FA204638BD00BF08B58020FFF7AAFF052000F065FA08BD2DE9F84381468846C5
:4024000000259020FFF79EFF9020FFF79BFF07469020FFF797FF0646D020FFF793FFD020FFF790FF0446D020FFF78CFF0135ADB221460246241A002CB8BF6442322C05DD6C
:40244000BB1B002BB8BF5B42322BDADCFE2DD8D836D80A4402EBD2723E4406EBD67640F6FF73A3EB6606B6B2C2F34F03783B4FF4487202FB03F3144A82FB03121A44DB1719
:40248000C3EBE2239BB2B3F5487F01D34FF44873A6F1C802C2EB021251010C4A82FB0102C917C1EB222292B2B2F5F07F01D34FF4F072A9F80030A8F800200120BDE8F8831C
:4024C0000020BDE8F88300BFAD322087931CA91210B5C020FFF736FF0446B020FFF732FF201A80B210BD00BFFEE700BFF0B40022174611E050F82760F3B226F0FF0608E0B5
:4025000001EB420511F812406D78A5550132013BDBB2002BF4D10137112FEBD9F0BC7047064B1B78DBB203F00701054A11701B09013213704422034B1A707047CF0100497F
:402540006E5800407658004038B50122274B1A801823274A13704FF6FF7102321180023213700222234B1A7008224FF040231A70042203F500731A701F4B1B78DBB21F4A4B
:40258000137040F615721E4B1A8041F25122023B1A80002419250CE01A4B1B7803F0010343EA440404F003044FF4F07000F000FA013D0DB1032CEFD115B90320FFF794FFBC
:4025C000114B4FF480721A8007221A7000220F490A704820023108701A700222033B1A700B4A137843F00303137038BD80400040824000400043004089010049A146004070
:4026000022420040254200400440004006400040A243004008B50A46002100F010FA08BD08B500F001FA08BD38B572B6374C61232370FFF789FF01232370354A137843F0A5
:402640000403137000240CE0324D630019194A0011462A44084691882858FFF7DBFF0134E4B2092CF0D900240CE02A48A20011194B000344B3F84420196CD86BFFF7D0FFA1
:402680000134E4B2012CF0D923494FF09040FFF72DFF224A137843F0020313701032137843F0020313701E4C237843F040032370A2F58632513A137843F01003137008221C
:4026C00018491948FFF7ACFF082218491848FFF7A7FF082217491848FFF7A2FF082217491748FFF79DFF082216491748FFF798FF164A137843F008031370FFF711FF0E229D
:4027000021461348FFF78CFF38BD00BF00480040E8460040640B02004800004803500140A0430040A8020048C2510040B002004812510040B802004832510040C002004843
:4027400052510040C80200486251004022430040B043004008B500F03BF903680C2B00D1FEE7FEE708B5094B1A681044084BC31A802B02DC054B186005E000F029F90C23ED
:4027800003604FF0FF32104608BD00BFCC80FF1F5084FF1F08B5104E104D16E029686B68AC68002204E051F8040B43F8040B0432A242F8D1E868002203E0002143F8041BCF
:4027C00004328242F9D11035013E002EE6D100F005F9FDF7A9FCFEE701000000100C020008B5104A104B1A60104A136843F40073136000230AE0032B03D80D4A52F8231059
:4028000000E00C490C4A42F8231001332F2BF2D90A4B1A780A4B1A70074A0A4B1A60FFF703FF08BD0004FA050CED00E014ED00E000000000552700000080FF1FBC7600405B
:40284000C080FF1F08ED00E00022034B1A70012210331A70704700BF2A65004008B5044B1B7823B9FFF7F0FF0122014B1A7008BD7081FF1F044B1B7813F0010FFAD1034BBB
:4028800018701033197070476B6500404A65004010B40CE0084B1B7813F0010FFAD1074B18700C7810331C70013A92B20131002AF0D110BC704700BF6B6500404A65004090
:4028C00010B5044605E0084B186800F071F8A4F50044B4F5004FF6D8034B586800FB04F000F066F810BD00BFD080FF1F024B187800F00100704700BF31510040044A1378F1
:4029000003F0F703C00000F0080018431070704760510040024B1878C0F3C000704700BF61510040044A137803F0BF03800100F0400018431070704760510040044A13781C
:4029400003F0FE0300F0010018431070704700BF60510040024B187800F00100704700BFC1510040044A137803F0FD03400000F00200184310707047C0510040044A1378E0
:4029800003F0F703C00000F00800184310707047C0510040044A137803F0FB03800000F00400184310707047C0510040000000000230800803D000BF01380046FCD170471F
:4029C000EFF3108072B6704780F31088704700BF014B1868704700BF4081FF1F0E4B70B51E460E4C0025E41AA410A54204D056F8253098470135F8E71EF0F8F8084B094CD9
:402A00001E46E41AA4100025A54204D056F8253098470135F8E770BDF80B0200F80B0200F80B0200000C020010B5431E0A44914204D011F8014B03F8014FF8E710BD03460F
:402A40000244934202D003F8011BFAE7704700000EB400B54FF402719CB0ADF814106FF00041049107914FF6FF711DAB02900690084853F8042BADF81610006802A90193CA
:402A800000F064F8029B00221A701CB05DF804EB03B070474081FF1F2DE9F0478E6882469E420C46914698463ED88A8912F4906F3AD02568096902236F1A656905EB450549
:402AC00095FBF3F57B1C43449D4238BF1D4653050FD5294600F040FB064698B13A462169FFF7A2FFA38923F4906343F08003A38113E02A4600F08EFB064670B9216950467A
:402B000000F0DEFA0C23CAF80030A3894FF0FF3043F04003A381BDE8F08726613E44266046466561ED1BA560464528BF464649463246206800F0A8FAA36800209B1BA3606B
:402B400023681E442660BDE8F08700002DE9F04F9DB003938B8980461C060D4616460DD50B695BB9402100F0F7FA2860286118B90C23C8F80030CDE040236B61002309939B
:402B800020238DF82930DFF89CB130238DF82A3037463C4614F8013B1BB9B7EB060910D003E0252BF9D02746F3E74B46324629464046FFF771FF013000F0A780099B4B44D0
:402BC00009933B78002B00F0A08000234FF0FF3204930793059206938DF853301A930126052221784E4800F041FA671C049B38B14B4A3C46801A06FA00F018430490EFE789
:402C0000D90644BF20228DF853201A0744BF2B228DF8532022782A2A03D0079A00210A200BE0039A111D12680391002A10DA524243F00200079204900BE027463B78013454
:402C4000303B092B03D800FB02320121F5E701B107923B782E2B1ED17B782A2B0AD1039B02371A1D1B680392002BB8BF4FF0FF33059310E0002319460593781C0A2407465A
:402C80003A780130303A092A03D804FB01210123F5E703B1059103223978224800F0E6F940B14023CBEB000003FA00F0049B013718430490397806221B487E1C8DF82810EF
:402CC00000F0D4F988B1194B33B9039B073323F007030833039314E003AB00932A46144B04A94046AFF3008007E003AB00932A460F4B04A9404600F093F8B0F1FF3F824628
:402D000003D0099B5344099342E7AB895B0601D4099801E04FF0FF301DB0BDE8F08F00BFB60B0200BC0B0200C00B020000000000992A00002DE9F04791461F460A698B68AB
:402D400006469342B8BF1346C9F8003091F843200C46DDF8208012B10133C9F800302368990642BFD9F800300233C9F80030256815F0060510D104F1190A07E0012352464B
:402D800039463046C04701301AD00135E368D9F800209B1A9D42F1DB94F843302268003318BF012392060FD5E118302081F843005A1C94F845102244023382F8431003E050
:402DC0004FF0FF30BDE8F08704F1430239463046C0470130F4D02268D9F80050E36802F00602042A08BF5D1B2269A3680CBF25EAE57500259342C4BF9B1AED184FF0000978
:402E00001A344D4509D00123224639463046C0470130D5D009F10109F3E70020BDE8F0872DE9F04317460A7E85B06E2A984606460C460C9B01F1430E00F0AE8011D8632A6C
:402E400022D009D8002A00F0BB80582A40F0CA8081F84520834955E0642A1ED0692A1CD0C0E0732A00F0B08009D86F2A2ED0702A40F0B8800A6842F020020A603EE0752A90
:402E800024D0782A3AD0ADE01A6801F14205111D1960136884F84230A8E021681A6811F0800F02D0111D196008E011F0400F02F10401196002D0B2F9003000E01368002BA2
:402EC0003CDA2D225B4284F8432037E021681A6811F0800F02D0111D196007E011F0400F02F10401196001D0138800E01368227E5C496F2A14BF0A2208221BE078225A4918
:402F000084F845202268186812F0800F00F104051D6003D1550601D5038800E00368D00744BF42F0200222601BB9226822F0200222601022002084F8430001E049490A224F
:402F40006568002DA56008DB206820F0040020602BB9002D7DD175460CE0002B79D07546B3FBF2F002FB1033CB5C05F8013D03460028F5D1082A0BD12368DA0708D52369D2
:402F800062689A42DEBF302305F8013C05F1FF35C5EB0E0323612EE008681A6810F0800F496903D0101D1860136808E010F0400F02F104001860136801D0198000E01960BA
:402FC00000232361754616E01A68111D1960156800216268284600F049F808B1401B6060636804E004F1420584F8422001232361002384F84330CDF800803B4603AA214618
:403000003046FFF797FE013002D14FF0FF3026E023692A4639463046C0470130F5D023689B0710D5002504F1190907E001234A4639463046C0470130E7D00135E368039A3E
:403040009B1A9D42F2DBE068039B9842B8BF184605E00B7804F1420584F842308AE705B0BDE8F083C70B0200D80B020010B5C9B202449042034605D01C7801308C42F8D1FF
:40308000184610BD002010BD884210B501EB020301D8421E0BE09842FBD28118D21AD34204D013F8014D01F8014DF8E710BD994204D011F8014B02F8014FF8E710BD0000F9
:4030C00038B50546002944D051F8043C0C1F002BB8BFE41800F0D4F81E4A1368114613B96360146030E0A3420DD92268A018834201BF18685B681218226063600C6023E04D
:40310000A24203D813465A68002AF9D118681918A1420BD12168014458188242196013D110685268014419605A600DE002D90C232B6009E021686018824201BF1068526826
:403140000918216062605C602846BDE8384000F098B838BD7881FF1F70B5CD1C25F0030508350C2D38BF0C25002D064601DBA94202D90C23336046E000F082F8234B1C6830
:403180001A462146A1B10B685B1B0ED40B2B03D90B60CC18CD501EE08C420BBF63684B681360636018BF0C4615E00C464968E9E7174C23681BB9304600F052F82060294611
:4031C000304600F04DF8431C18D0C41C24F00304A0420DD12560304600F053F804F10B00231D20F00700C31A0ED05A42E25070BD211A304600F034F80130EBD10C23336063
:40320000304600F03EF8002070BD00BF7881FF1F7481FF1FF8B5074615460E4621B91146BDE8F840FFF798BF1AB9FFF749FF2846F8BD00F027F885420ED929463846FFF7E4
:403240008BFF044650B131462A46FFF7EDFB31463846FFF735FF01E03046F8BD2046F8BD38B5064C0023054608462360FFF77AFA431C02D1236803B12B6038BD4C84FF1FA7
:403280007047704751F8040C0028BEBF091851F8043CC018043870470000000018210100C300660000010000427574746F6E2042200A50726573736564210000496D61674C
:4032C00065200A507265737365642100546869732069732061200A20746573742073616D706C652077696E646F77210054465420352220202028256478256429000000000E
:4033000050536F4320354C502028435938434B49542D303530290000546573742057696E646F77202D20E64755492076302E33312020200200000000427574746F6E200A45
:4033400041000000427574746F6E200A42000000427574746F6E200A43000000416E64726573204E617661730000000058203D202564207C202564202000000059203D200C
:403380002564207C20256420200000005A203D20256420202000000064646400646464006464640064646400A0A0A000A0A0A000A0A0A000A0A0A000F0F0F000F0F0F0006F
:4033C000F0F0F000F0F0F00064646400646464006464640064646400FFFFFF00FFFFFF006969690069696900E3E3E300E3E3E300A0A0A000A0A0A0006464640064646400A3
:403400006464640064646400A0A0A000A0A0A000A0A0A000A0A0A000F0F0F000F0F0F000F0F0F000F0F0F00064646400646464006464640064646400FFFFFF00FFFFFF00CA
:403440006969690069696900E3E3E300E3E3E300A0A0A000A0A0A00064646400646464006464640064646400FFFFFF00FFFFFF006969690069696900E3E3E300E3E3E30052
:40348000A0A0A000A0A0A000143500000000160024000000FF0000000000000014A10000000010001A000000FF0000000000000014D5000000000C0010000000FF000000E8
:4034C0000000000014F50000000008000E000000FF0000000000000014030100000008000C000000FF00000000000000140F0100000006000A000000FF0000000000000050
:40350000141901000000050008000000FF00000000000000000000000000000000000000000000000000000000000000000000000000000000000000000000000000000051
:40354000000000000000000000000000000000000000000000000000000000000000000000000000000000000000000000000000000000000000000000000000000000004B
:40358000000000000000000000000000000000000000000000000000000000003F00C0FF00F0C0033800071C000ECCE10CCEE11CC6E118060018060018260019668019CE66
:4035C000C01C8C7F0C1C3F0E380007F0C003C0FF00003F0000000000000000000000000000000000000000000000000000000000000000000000000000000000000000007F
:4036000000000000000000003F00C0FF00F0FF03F8FF07FCFF0F3C1E0F3E1E1F3E1E1FFEFF1FFEFF1FDEFF1E9E7F1E9E7F1F3C1E0F7C800FF8E107F0FF03C0FF00003F0045
:40364000000000000000000000000000000000000000000000000000000000000000F8C007FCE10FFEF31FFEFF1FFFFF3FFFFF3FFFFF3FFFFF3FFFFF3FFFFF3FFFFF3FFECA
:40368000FF1FFEFF1FFEFF1FFCFF0FFCFF0FF8FF07F8FF07F0FF03E0FF01E0FF01C0FF00807F00003F00001E00000C000000000000000000000000000000000000000000CB
:4036C00000000000000000000000000400000C00000E00001F00803F00807F00C0FF00E0FF00F0FF01F8FF07FCFF0FFEFF1FFFFF3FFEFF1FFCFF0FF8FF07F0FF03E0FF01EA
:40370000E0FF00C07F00803F00003F00001F00000E00000C00000400000000000000000000000000000000000000000000000000000000000000001E00807F00807F00C054
:40374000FF00C0FF00C0FF00C0FF00807F00807F0078BF07FEFF1FFEFF1FFFFF3FFFFF3FFFFF3FFFFF3FFEF51FFEEE0F78CE07000E00000E00000E00000E00001F00001FD5
:4037800000001F00000000000000000000000000000000000000000000000000000000000000000400000C00000E00001F00803F00807F00C0FF00E0FF01F0FF03F8FF0760
:4037C000FCFF0FFEFF1FFEFF1FFFFF3FFFFF3FFFFF3FFFFF3FFEF51FFEEE1F788E07000E00000E00000E00001F00001F00001F0000000000000000000000000000000000E2
:403800000000000000000000000000000000000000000000000000000000000000000000000000000000000000000000000000000000000000000000000000000000000088
:403840000000000000000000000000000000000000000000000000000000000000000000000000000000000000000000000000000000000000000000000000000000000048
:403880000000000000000000000000000000000000000000000000000000000000000000000000000000000000000000000000000000000000000000000000000000000008
:4038C00000000000000000000000000000000000000000000000000000000000000000000000000000000000000000000000000000000000000000000000000000000000C8
:403900000000000000000000000000000000000000000000000000000000000000000000000000000000000000000000000000000000000000000000000000000000000087
:403940000000000000000000000000000000000000000000000000000000000000000000000000000000000000000000000000000000000000000000000000000000000047
:403980000000000000000000000000000000000000000000000000000000000000000000000000000000000000000000000000000000000000000000000000000000000007
:4039C0000C00C00F00FC0F00F80F00981F00801F00C01900E03900E038C07F08F07F00F87F003CF0001EE0010EC0010780030780030780030780030780030EC0011EE001D3
:403A00003CF000F87F00F03F00C00F00000000000000000000000000000000000000000000000000000000000000003F00C0FF00E0FF01F0C0037880073800071C000E1CD0
:403A4000000E1C000E1C000E1C000E38000F788007F0C103E0FF03C0FF01007F00001C00001C00C0FF01C0FF01C0FF01001C00001C00001C00001C000000000000000000B7
:403A80000000000000000000000000000000000000000000000000000000000000000000000000000000000000000000000000000000000000000000000000000000000006
:403AC00000000000000000000000000000000000000000000000000000000000000000000000000000000000000000000000000000000000000000000000000000000000C6
:403B0000000000000800000E00C00F00F00F00FC0F00FF0C803F0C800F0C80030C80010C80010C80010C80010C80010C80010C80010C80010C80010C80010C80C10F80F153
:403B40000F80F90780F90780F90380F100F80100FE0100FF0000FF00007F00001E0000000000000000000000000000000000000000000000000000000000001C00001C007E
:403B8000101C02783F07F0FF03E0FF01E0E101F0C0037E801F7E801F7E801F708003F0C003E0E101E0FF03F0FF03383F07101C02001C00001C00000000000000000000005B
:403BC00000000000000000000000000000000000000000000000000000000000000000000000000000000000000200000E00003E0000FE0000FE0300FE0700FE1F00FE7FD9
:403C000000FEFF01FEFF07FEFF1FFEFF07FEFF01FE7F00FE1F00FE0700FE0300FE00003E00000E000002000000000000000000000000000000000000000000000000000078
:403C400000000000000000000000000000000000000000000000001000001C00001F00C01F00F01F00F81F00FE1F80FF1FE0FF1FF8FF1FFEFF1FF8FF1FE0FF1F80FF1F0057
:403C8000FE1F00F81F00F01F00C01F00001F00001C000010000000000000000000000000000000000000000000000000000000000000000800001C00003E00007F0080FF37
:403CC00000C0DD01401C01001C00001C00001C00001C00001C00001C00001C00001C00001C00001C00001C00001C00001C00001C00001C00001C00001C00401C01C0DD01F2
:403D000080FF00007F00003E00001C00000800000000000000000000000000000000E0E000E0E000E0E000E0E000E0E000E0E000E0E000E0E000E0E000E0E000E0E000E003
:403D4000E000E0E000E0E000E0E000E0E000E0E000E0E000E0E000000000000000000000E0E000E0E000E0E000E0E000000000000000000000000000000000000000000023
:403D800000000000000000000000E0FF03F8FF03F80703FC0703FC0703FC0703FC0703FC0703FC0703F80703F00703E0070380070300060300060300060300060300060364
:403DC00000060300060300060300060300060300060300060300060300060300060300060300060300060300000000000000000000000000000000FF00C0FF01E0FF01E0CF
:403E00008101700000700000700000F00000E00300E00F00C03F00C07F00E0F80170E00170C003708003F08003F08103E08301C0DF0180FF0000FE0000F80100E00100C05E
:403E400003008003008003108003F0E001F0FF01F0FF00803F00000000000000000000000000000000000000000000000000000000000000000000000000000000FEFF1F1B
:403E8000FEFF1FFEFF1FFEFF1FFEFF1FFEFF1F0000000000000000000000000000000000000000000000000000000000000000000000000000000000000000000000000076
:403EC0000000000000000000000800001C00001C00007F0080FF00C0DD01401C01001C00001C00001C00001C00001C00001C00001C00001C00001C00001C00001C00001C39
:403F000000001C00001C00001C00001C00401C01C0DD0180FF00007F00003E00001C00000800000000000000C0FF01C0FF01C0FF01000000000000000000000800001C0052
:403F4000003E00007F0080FF00C0DD01401C01001C00001C00001C00001C00001C00001C00001C00001C00001C00001C00001C00001C00001C00001C00001C00001C00004A
:403F80001C00001C00001C00001C00001C00001C00001C00001C00000000000000000000000000000000001C00001C00001C00001C00001C00001C00001C00001C00001C25
:403FC00000001C00001C00001C00001C00001C00001C00001C00001C00001C00001C00001C00001C00001C00001C00001C00401C01C0DD0180FF00007F00003E00001C00CA
:4040000000080000000000000000000000000000000000000000000000000000000000000000000000000000000000000000000000600000C00000C001008003FCFF07FC16
:40404000FF0FFCFF0700800300C00100C0000060000000000000000000000000000000000000000000000000000000000000000000000000000000000000000000000000CC
:4040800000000000000000000000000000000000000000000000000000000000800100C00000E00000700000F8FF0FFCFF0FF8FF0F700000E00000C00000800100000000C8
:4040C0000000000000000000000000000000000000000000000000000000000000000000000000000000000000000000000000000000000000000000000000000000001CA4
:4041000000001C00001C00001C00001C00001C00001C00001C00001C00001C00001C00001C00001C00001C00001C00001C0000FCFF0FFCFF0FFCFF0F0000000000000000BD
:4041400000000000000000000000000000000000000000000000000000000000000000000000000000000000000000000000000000000000806100C0C000E0C0017080034A
:40418000F8FF07FCFF0FF8FF07708003E0C001C0C0008061000000000000000000000000000000000000000000000000000000000000000000000000000000000000000004
:4041C0000000000000000000000000000000000000000400000400000E00000E00001F00001F00003F00803F00807F00C07F00C0FF00E0FF00E0FF01F0FF01F0FF03F8FFCA
:4042000003F8FF07F8FF07FCFF0FFCFF0FFEFF1F000000000000000000000000000000000000000000000000000000000000000000000000000000000000000000FEFF1F33
:40424000FCFF0FFCFF0FF8FF07F8FF07F8FF03F0FF03F0FF01E0FF01E0FF00C0FF00C07F00807F00803F00003F00001F00001F00000E00000E000004000004000000000036
:4042800000000000000000000000000000000000000000000000000000000000000000000000000000000000000000000000000000000000000000000000000000000000FE
:4042C00000000000000000000000000000000000000000000000000000000000000000000000000000000000000000000000000000000000000000000000000000000000BE
:40430000000000000000000E00000E00000E00000E00000E00000E00000E00000E00000E00000E00000E00000E00000E00000E00000E00000E00000E00000E00000E000073
:404340000000000000000000000E00000E00000E00000E00000000000000000000000000000000000000000000000000F0E001F0E001F0E001F0E001F0E001F0E00160C0FF
:404380000060C00060C00060C0000000000000000000000000000000000000000000000000000000000000000000000000000000000000000000000000000000000000009D
:4043C000000000000000000000000000000000000000000000000000000000000000000E07000E0700870300870300870300870380C301FCFF1FFCFF1FFCFF1FC0E100C078
:40440000E100C0E100C0E100C0E100FEFF07FEFF07FEFF07E07000703800703800703800703800703800381C00381C0000000000000000000000000000000000000000006C
:4044400000000000000C00000C00007F00C0FF01E0FF01E08D01F00C00700C00700C00700C00F00C00E00D00C00F00800F00001F00007E0000FC0000FC0100CC0100CC03AE
:40448000008C03008C03008C0308CC0338EC01F8FF01F8FF00C03F00000C00000C00000000000000000000000000000000000000000000000000F80038FC011C8E030E075E
:4044C000070707070707870307C70107C70107E7008E7300FC3900F83800001C00000E0000C70700E70F80731CC03938E03838E038387038383838383838381C701C0EE082
:404500000F07C007000000000000000000000000000000000000000000000000000000000000001F00807F00C07F00E0F100E0E000E0E000E0E000E07000C07900C03F00A8
:40454000C00F00E00700F807383C07381E0E380E1E38073C18073C1C07781C07F00E0FE00F1EE0077EC007FCFF0FF8FF0FC01F1E000000000000000000000000000000005C
:404580000000000000000000000F00000F00000F00000F00000F00000F00000600000600000600000600000000000000000000000000000000000000000000000000000089
:4045C0000000000000000000000000000000000000000000000000000000000000000000000000000000000000000000000000000000000000000600C00700F00100780085
:40460000003C00001E00000E00000700000700800300800300800300C00100C00100C00100C00100C00100C00100C00100C00100C001008003008003008003000007000022
:404640000700000E00001E00003C0000780000F00100C007000006000000000000000000380000F80000E00300800700000F00001E00001C00003800003800007000007062
:404680000000700000E00000E00000E00000E00000E00000E00000E00000E00000E000007000007000007000003800003800001C00001E00000F00800700E00300F800003F
:4046C000180000000000000000000000000000000000000E00000E00000E00000E00300E03F8C407F8E107E0E101000000003300807F00C0F300E0E101E0C00180400000BC
:404700000000000000000000000000000000000000000000000000000000000000000000000000000000000000000000000000000000000000000000000000000000000079
:4047400000000000000000000000000000000000000000001C00001C00001C00001C00001C00001C00001C00001C00FCFF1FFCFF1FFCFF1F001C00001C00001C00001C009B
:40478000001C00001C00001C00001C000000000000000000000000000000000000000000000000000000000000000000000000000000000000000000000000000000000089
:4047C0000000000000000000000000000000000000000000000000000000000000000000000000000000000000001F00001F00001F00001F00001F00001C00001C00000CDA
:4048000000000E00000700000300000000000000000000000000000000000000000000000000000000000000000000000000000000000000000000000000000000F0FF036E
:40484000F0FF03F0FF030000000000000000000000000000000000000000000000000000000000000000000000000000000000000000000000000000000000000000000054
:4048800000000000000000000000000000000000000000000000000000000000000000000000000000000000000000000000000000000000000000000000000000000000F8
:4048C00000001F00001F00001F00001F00001F0000000000000000000000000000000000000000000000000000001C00000E00000E00000700000700800300800300C00110
:4049000000C00100E00000E000007000007000003800003800001C00001E00000E00000700000700800300800300C00100C00100E00000E0000070000070000038000038B8
:4049400000001C00001C00000E0000000000000000000000000000000000001F00C07F00E0FF00F0E00170C0013880033880033880031C00071C00071C00071C00071C00D9
:40498000071C00071C00071C00071C00071C000738800338800338800370C001F0E001E0FF00C07F00001F00000000000000000000000000000000000000000000000000D1
:4049C000000000000000001800001F00E01F00F81F00781C00001C00001C00001C00001C00001C00001C00001C00001C00001C00001C00001C00001C00001C00001C00004E
:404A00001C00001C00001C00001C00F8FF0FF8FF0FF8FF0F000000000000000000000000000000000000000000000000000000000000801F00F07F00F0FF0070F00010E0A7
:404A40000100C00100C00100C00100C00100C00100E00000F000007000003800001C00000E00000700800300C00100E00000E00000700000780000F8FF01F8FF01F8FF01F3
:404A8000000000000000000000000000000000000000000000000000000000000000C01F00F07F00F0FF0030F00100C00100C00100C00100C00100E000007800C03F00C07D
:404AC0003F00C07F0000F80000E00100C00300800300800300800300800300C00300C00130F001F0FF00F07F00E01F0000000000000000000000000000000000000000008E
:404B00000000000000000000000000E00000F00000F80000F80000FC0000EE0000EE0000E70080E30080E300C0E100E0E00070E00070E00038E0001CE000FCFF07FCFF0717
:404B4000FCFF0700E00000E00000E00000E00000E00000E00000E000000000000000000000000000000000000000000000000000000000000000E0FF00E0FF00E0FF00E096
:404B80000000E00000E00000E00000E00000E00000E00000E00F00E03F00E07F0000F80000F00000E00100C00100C00100C00100C00100E00100E00060F000E07F00E03FEC
:404BC00000C00F0000000000000000000000000000000000000000000000000000000000000000FC0000FF0380FF03C00303E00100E0000070000070000070000038000057
:404C0000383E0038FF00B8FF01F8E103788003788007780007380007380007700007700007F08003E0C103C0FF0180FF00003F0000000000000000000000000000000000B9
:404C40000000000000000000000000000000F0FF0FF0FF0FF0FF0F00000700000700800300800300C00100E00000E000007000007000003800003C00001C00001E00000E09
:404C800000000F00000700800700800300C00300C00300E00100E00100E00100000000000000000000000000000000000000000000000000000000000000007F00C0FF006D
:404CC000E0FF01E0E003708003708003708003F08003E0C001E0E300C07700803F00807F00E0FD00E0F00170E003388007388007380007380007380007788007F0C103E09D
:404D0000FF01C0FF00003F00000000000000000000000000000000000000000000000000000000000000003F00C07F00E0FF00F0E00170C003388003388003380007380027
:404D40000738800778800770C007F0E107E07F07C03F07801F0700000700800300800300800300C00100E00130F000F07F00F03F00C00F000000000000000000000000008E
:404D8000000000000000000000000000000000000000000000000000000000000000000000000000000000001F00001F00001F00001F00001F000000000000000000000058
:404DC0000000000000000000000000000000000000001F00001F00001F00001F00001F00000000000000000000000000000000000000000000000000000000000000000018
:404E000000000000000000000000000000000000000000001F00001F00001F00001F00001F00000000000000000000000000000000000000000000000000000000001F00B8
:404E4000001F00001F00001F00001F00001C00001C00000C00000E00000700000300000000000000000000000000000000000000000000000000000000000000000000005A
:404E8000000800000E00800F00E00700F801007C00001F00C00700F00300FC0000F00100C00700001F00007C0000F80100E00700800F00000E000008000000000000000044
:404EC00000000000000000000000000000000000000000000000000000000000000000000000000000000000000000000000000000000000000000FCFF0FFCFF0FFCFF0F94
:404F0000000000000000000000000000FCFF0FFCFF0FFCFF0F0000000000000000000000000000000000000000000000000000000000000000000000000000000000000053
:404F400000000000000000000000000000000000000000000000000400001C00007C0000F80100E00700800F00003E0000F80000F00300C00F00E00300F800003E00800F86
:404F800000E00700F801007C00001C0000040000000000000000000000000000000000000000000000000000000000000000E03F00F8FF01F8FF0338C00738800738000767
:404FC00000000700000700800300C00100E000007000003800001C00000E000006000007000007000007000000000000000000000007000007000007000007000000000076
:40500000000000000000000000000000000000000000000000000000000000FE0080FF03C08307E0000770000E38F00F38F80F1C1C0E1C0E0E1E0E0E0E060E0E070E0E07B9
:405040000F0E070F0E870F0E870F0EC70E0EEF0E1C7E0E1C7E3E383C3E380000700000E08101C0FF01007F000000000000000000000000000000000000000000000000004C
:40508000000000000000000000000000000000001E00001F00003F00003F00803B00807B00C07100C0F100C0E100E0E000E0E00170C00170C003708003F8FF03F8FF07F834
:4050C000FF071C000F1C000E1E001E0E001C0E001C070038000000000000000000000000000000000000000000000000000000000000000000000000000000F83F00F8FF58
:4051000000F8FF0138E00338800338800338800338C00138F001F87F00F81F00F8FF0038F00138C00338800738000738000738000738000738C003F8FF03F8FF01F87F0041
:4051400000000000000000000000000000000000000000000000000000000000000000000000000000000000FC0700FF1FC0FF1FE0071CF001007000007800003800001C00
:4051800000001C00001C00001C00001C00001C00003C0000380000780000F80000F00100E0071CC0FF1F00FF1F00FC03000000000000000000000000000000000000000090
:4051C00000000000000000000000000000000000000000FC0F00FC7F00FCFF001CF0011CC0031C80031C80031C80071C00071C00071C00071C00071C00071C00071C00076C
:405200001C80031C80031CC0031CE0011CF801FCFF00FC3F00FC0F00000000000000000000000000000000000000000000000000000000000000000000000000000000F00E
:40524000FF07F0FF07F0FF07700000700000700000700000700000700000700000F0FF01F0FF01F0FF01700000700000700000700000700000700000700000F0FF0FF0FF5F
:405280000FF0FF0F000000000000000000000000000000000000000000000000000000000000000000000000000000F0FF0FF0FF0FF0FF0F70000070000070000070000027
:4052C000700000700000700000F0FF03F0FF03F0FF037000007000007000007000007000007000007000007000007000007000000000000000000000000000000000000028
:40530000000000000000000000000000000000000000000000000000FE0380FF0FE0FF0FF0030EF800003800003C00001C00000E00000E00000E00000EF00F0EF00F0EF025
:405340000F1E000E1C000E3C000E7C000EF8000EF0070EE0FF0F80FF0F00FE030000000000000000000000000000000000000000000000000000000000000000000000006C
:40538000000000380007380007380007380007380007380007380007380007380007380007F8FF07F8FF07F8FF07380007380007380007380007380007380007380007388C
:4053C0000007380007380007000000000000000000000000000000000000000000000000000000000000000000000000000000F8FF03F8FF03F8FF03000E00000E00000E10
:4054000000000E00000E00000E00000E00000E00000E00000E00000E00000E00000E00000E00000E00000E00000E00F8FF03F8FF03F8FF03000000000000000000000000BA
:40544000000000000000000000000000000000000000000000000000000000E0FF00E0FF00E0FF0000E00000E00000E00000E00000E00000E00000E00000E00000E00000AF
:40548000E00000E00000E00000E00000E00000E000007000087800F83F00F81F00F00700000000000000000000000000000000000000000000000000000000000000000077
:4054C0000000000000000038800738C00338E00138F000387800383800383C00381E00380F00B80700B80300F80700B80700380F00381E00383C0038780038F00038E00146
:4055000038C00338800738000F38001F00000000000000000000000000000000000000000000000000000000000000000000000000000070000070000070000070000070E3
:405540000000700000700000700000700000700000700000700000700000700000700000700000700000700000700000700000F0FF0FF0FF0FF0FF0F0000000000000000A1
:40558000000000000000000000000000000000000000000000000000000000000000007C001F7C001FFC001FFC801FFC801FDC811DDCC11DDCC11D9CC31C9CE31C9C631C45
:4055C0001C671C1C771C1C371C1C3E1C1C3E1C1C1C1C1C1C1C1C001C1C001C1C001C1C001C1C001C0000000000000000000000000000000000000000000000000000000042
:40560000000000000000000000000078000E78000EF8000EF8010EF8010EF8030EB8030E38070E380F0E380E0E381E0E381C0E383C0E38380E38700E38F00E38E00E38E092
:405640000F38C00F38800F38800F38000F38000F000000000000000000000000000000000000000000000000000000000000000000000000000000803F00E0FF00F0FF016A
:40568000F8E0033880031C00071C00071E000F0E000E0E000E0E000E0E000E0E000E0E000E0E000E1E000F1C00071C0007388003F8E003F0FF01E0FF00803F000000000086
:4056C0000000000000000000000000000000000000000000000000000000000000000000000000F0FF00F0FF03F0FF0770800770000F70000E70000E70000E70000E7000F5
:405700000770C007F0FF03F0FF00F03F007000007000007000007000007000007000007000007000007000000000000000000000000000000000000000000000000000002B
:40574000000000000000000000000000000000803F00E0FF00F0FF01F8E0033880031C00071C00071E000F0E000E0E000E0E000E0E000E0E000E0E000E0E000E1E00071C8D
:4057800000071C0007388003F8E003F0FF01C07F00807F0000E00100C00F00803F00001E000008000000000000000000000000000000000000000000000000F81F00F87FD8
:4057C00000F8FF0038F00138C00138C00138C00138C00138E00138E00038F800F87F00F81F00F81F00383C00383C0038780038F00038E00138C00338800338800738000F0A
:40580000000000000000000000000000000000000000000000000000000000000000000000000000000000807F00E0FF03F0FF03F08003380000380000380000780000F80A
:405840000000F00700E03F0080FF0000FC0100F00300800700000700000700000708800778C003F8FF01F8FF00C03F0000000000000000000000000000000000000000004F
:4058800000000000000000000000000000000000000000FFFF1FFFFF1FFFFF1F000E00000E00000E00000E00000E00000E00000E00000E00000E00000E00000E00000E00E9
:4058C000000E00000E00000E00000E00000E00000E00000E00000E000000000000000000000000000000000000000000000000000000000000000000000000000000003800
:405900000007380007380007380007380007380007380007380007380007380007380007380007380007380007380007380007380007788007708003F0E003E0FF01C0FF0C
:4059400000003F000000000000000000000000000000000000000000000000000000000000000000000000000000000F00380E001C0E001C1E000E1C000E3C000F3800076D
:40598000380007788003708003F0C001F0C001E0E001E0E100C0F100C07300C07300803B00803F00003F00001F00001F00000E0000000000000000000000000000000000BA
:4059C00000000000000000000000000000000000000000000000000700380700380700380E00180E00180E1E1C0E1E1C0E1E1C0E3E1C0E3F0C1C3F0C1C3B0C1C730E1C730F
:405A00000E9C730E9C7306B8E106B8E106B8E106F8E107F8C007F8C003F8C00300000000000000000000000000000000000000000000000000000000000000000000000034
:405A40000000001E003C3C001E78000F708007F0C003E0C101C0E30180F300807F00003F00001E00001E00003F00807F0080F300C0E100E0E101F0C0037080073800071CF5
:405A8000000F1E001E0F003C0000000000000000000000000000000000000000000000000000000000000000000000000000001E003C3C001C78000E78000FF00007E0803A
:405AC00003E0C103C0C30180E30080F700007F00003E00003E00001C00001C00001C00001C00001C00001C00001C00001C00001C00001C000000000000000000000000008E
:405B0000000000000000000000000000000000000000000000000000000000F8FF0FF8FF0FF8FF0F00000F00800700C00300E00100F000007000007800003C00001E0000E7
:405B40000F00800700800300C00300E00100F000007800003C0000FCFF0FFCFF0FFCFF0F00000000000000000000000000000000000000000000000000FF0700FF0700FF9B
:405B8000070007000007000007000007000007000007000007000007000007000007000007000007000007000007000007000007000007000007000007000007000007004B
:405BC00000070000070000070000070000070000070000FF0700FF0700FF070000000000000000000E00001C00001C0000380000380000700000700000E00000E00000C053
:405C00000100C00100800300800300000700000700000E00001E00001C0000380000380000700000700000E00000E00000C00100C0010080030080030000070000070000A0
:405C40000E00000E00001C000000000000000000F83F00F83F00F83F000038000038000038000038000038000038000038000038000038000038000038000038000038006F
:405C8000003800003800003800003800003800003800003800003800003800003800003800003800003800003800F83F00F83F00F83F00000000000000000000000000002F
:405CC0000000000400000400000E00000E00001E00001F00001F00803B00803B00807100C07100C0E100E0E000E0C00160C0017080037080033880033800073800071C002E
:405D00000E00000000000000000000000000000000000000000000000000000000000000000000000000000000000000000000000000000000000000000000000000000055
:405D4000000000000000000000000000000000000000000000000000000000000000000000000000000000000000000000000000000000000000000000000000FFFF3FFFE7
:405D8000FF3FFFFF3F000000000000000000000000000000000F00001E00003C0000700000000000000000000000000000000000000000000000000000000000000000008F
:405DC00000000000000000000000000000000000000000000000000000000000000000000000000000000000000000000000000000000000000000000000000000000000A3
:405E0000000000000000000000000000000000000000000000000000000000803F00F0FF00F0FF0070E00100C00100C00100C00100C00180FF01E0FF01F0C00138C0011C4A
:405E4000C0011CC0011CE0013CF801F8BF0FF09F0FE0070F000000000000000000000000000000000000000000000000380000380000380000380000380000380000380070
:405E800000380000380000387C0038FF00B8FF01F8C103F8800378800738000738000738000738000738000738000738000738800378C003F8E101F8FF01B8FF00183E000B
:405EC00000000000000000000000000000000000000000000000000000000000000000000000000000000000000000000000000000000000FC0380FF0FC0FF0FE0030EF066
:405F00000000700000780000380000380000380000380000380000780000700000F00000E0030CC0FF0F80FF0F00FC0300000000000000000000000000000000000000003F
:405F400000000000008003008003008003008003008003008003008003008003008003808F03E0BF03F0FF03F0F00378C0033880031C80031C80031C80031C80031C8003EC
:405F80001C80031C80033CC00338E00378F003F0BF03E09F03C0870300000000000000000000000000000000000000000000000000000000000000000000000000000000A0
:405FC0000000000000000000000000003F00C0FF00E0FF00F0E00138C0013880031C8003FCFF03FCFF03FCFF031C00001C00003C0000380000780000F08103F0FF03C0FF5D
:4060000003007F0000000000000000000000000000000000000000000000000000F01F00FC3F00FE3F001E20000F00000700000700000700000700F8FF1FF8FF1FF8FF1FAC
:4060400000070000070000070000070000070000070000070000070000070000070000070000070000070000070000070000070000000000000000000000000000000000B0
:406080000000000000000000000000000000000000000000000000000000000000000000000000808F03E0BF03F0FF03F0F00378C0033880031C80031C80031C80031C80E8
:4060C000031C80031C80031C80033CC00338E00378F003F0BF03E09F03C0870300800300800300C00170E001F0FF00F07F00C01F0000000038000038000038000038000088
:40610000380000380000380000380000380000387C0038FF01B8FF01F8C303F8800378800338800338800338800338800338800338800338800338800338800338800338E9
:406140008003388003388003000000000000000000000000000000000000000000000000000000001E00001E00001E00001E00000000000000000000000000F81F00F81F80
:4061800000F81F00001C00001C00001C00001C00001C00001C00001C00001C00001C00001C00001C00001C00001C00001C00001C00001C0000000000000000000000000008
:4061C000000000000000000000000000000000007800007800007800007800000000000000000000000000F07F00F07F00F07F000070000070000070000070000070000042
:406200007000007000007000007000007000007000007000007000007000007000007000007000007000007800183800F83F00F81F00E00700000000700000700000700061
:406240000070000070000070000070000070000070000070800F70C00770E00370F00170F800707C00703E00701E00700F00F00700700F00701E00703C0070780070F0008D
:4062800070E00170C00370800770000F000000000000000000000000000000000000000000000000F81F00F81F00F81F00001C00001C00001C00001C00001C00001C0000F7
:4062C0001C00001C00001C00001C00001C00001C00001C00001C00001C00001C00001C00001C00001C00001C00001C00001C00001C00001C00001C0000000000000000008A
:40630000000000000000000000000000000000000000000000000000000000000000000000000000000000000000001C87079CCF07DCCF0FFC7C0E7C3C0E3C3C0E1C1C0E6F
:406340001C1C0E1C1C0E1C1C0E1C1C0E1C1C0E1C1C0E1C1C0E1C1C0E1C1C0E1C1C0E1C1C0E1C1C0E00000000000000000000000000000000000000000000000000000000D5
:406380000000000000000000000000000000000000000000000000387C0038FF01B8FF01F8C303F88003788003388003388003388003388003388003388003388003388030
:4063C00003388003388003388003388003388003000000000000000000000000000000000000000000000000000000000000000000000000000000000000000000000000F3
:40640000000000803F00E0FF00F0FF01F0E00178C0033880031C00071C00071C00071C00071C00071C00071C000738800378C003F0E001F0FF01E0FF00803F0000000000BD
:406440000000000000000000000000000000000000000000000000000000000000000000000000000000000000000000000000387C0038FF00B8FF01F8C103F8800378804A
:406480000738000738000738000738000738000738000738000738800378C003F8E101F8FF01B8FF00383E003800003800003800003800003800003800003800000000009F
:4064C000000000000000000000000000000000000000000000000000000000809F03E0BF03F0FF03F0F00378C0033880031C80031C80031C80031C80031C80031C80031C37
:4065000080033CC00338E00378F003F0BF03E09F03C08703008003008003008003008003008003008003008003000000000000000000000000000000000000000000000040
:4065400000000000000000E0F007E0FC07E0FE07E00F07E00307E00107E00000E00000E00000E00000E00000E00000E00000E00000E00000E00000E00000E00000E0000054
:40658000000000000000000000000000000000000000000000000000000000000000000000000000000000000000000000000000000000007F00C0FF01E0FF01F0800170DB
:4065C0000000700000F00000E00700C03F0080FF0000FC0100E00300800300800310800370E003F0FF01F0FF00803F0000000000000000000000000000000000000000006C
:4066000000000000000000000000000000000000000000800300800300800300800300FCFF07FCFF07FCFF0780030080030080030080030080030080030080030080030030
:40664000800300800300800300800300800F0000FF0700FF0700FC070000000000000000000000000000000000000000000000000000000000000000000000000000000070
:40668000000000000000000000000038800338800338800338800338800338800338800338800338800338800338800338800338800338C00338E00378F803F0BF03F09F91
:4066C00003C087030000000000000000000000000000000000000000000000000000000000000000000000000000000000000000000000000000000E001E1C000E1C000ECD
:406700003C000738000778800370800370C001E0C001E0E001E0E100C0F100C07300807300803B00003F00001F00001F00000E000000000000000000000000000000000078
:4067400000000000000000000000000000000000000000000000000000000000000000000000000700380F00380F1E180E1E180E3E1C0E3E1C0E3F1C1E330C1C730C9C73CA
:406780000E9C730E9C610EBCE106F8E106F8E006F8C007F8C007F8C00370C003000000000000000000000000000000000000000000000000000000000000000000000000D7
:4067C0000000000000000000000000000000003C000F780007F08003E0C103C0C101C0E30080F700007F00003E00003E00003F00007F0080F300C0E301E0C101E0C0037097
:40680000800778000F3C001E0000000000000000000000000000000000000000000000000000000000000000000000000000000000000000000000000000001E001C1C009A
:406840000E1C000E380007380007708003708003F08003E0C001E0C101C0E100C0E300807300807300003F00003F00001E00001E00000E00000E00000700800700C0030075
:40688000FC0300FC01007C0000000000000000000000000000000000000000000000000000000000000000FCFF07FCFF07FCFF0700C00700E00300F00100F800007C00004B
:4068C0003E00001F00800F00C00700E00300F00100F800007C0000FCFF07FCFF07FCFF0700000000000000000000000000000000000000000000000000F00300FC0300FCA9
:4069000003001E00000E00000E00000E00000E00000E00001C00001C00001C00001C00001C00000F00F00700F00100F00700000F00001C00001C00001C00001C00001C00DB
:40694000000E00000E00000E00000E00000E00001E0000FC0300F80300F003000000000000000000001C00001C00001C00001C00001C00001C00001C00001C00001C0000CA
:406980001C00001C00001C00001C00001C00001C00001C00001C00001C00001C00001C00001C00001C00001C00001C00001C00001C00001C00001C00001C00001C00001C6F
:4069C00000001C00001C00000000000000000000F00300F00700F00F00001E00001C00001C00001C00001C00001C00000E00000E00000E00000E00000E00003C0000F8034F
:406A000000E00300F803003C00000E00000E00000E00000E00000E00001C00001C00001C00001C00001C00001E00F00F00F00F00F00300000000000000000000000000005B
:406A40000000000000000000000000000000000000000000000000000000000000000000000000000000F00000F80318FC07180C1F1C0E3E0C06F80F06F00700C00300008C
:406A800000000000000000000000000000000000000000000000000000000000000000000000000000000000000000000000000000000000000000F0FF01F0FF01300001C5
:406AC000300001300001300001300001300001300001300001300001300001300001300001300001300001300001300001300001300001300001300001F0FF010000000003
:406B0000000000000000000000000000000000000000000000000000000000000000000000000000FC0700FF1FC0FF1FE0071CF001007000007800003800001C00001C000A
:406B4000001C00001C00001C00001C00003C0000380000780000F80000F00100E0071CC0FF1F00FF1F00FC0300300000100000780000E00000C00100C00100FC00007C0040
:406B8000000000000000C0E100C0E100C0E10000000000000000000000000038800338800338800338800338800338800338800338800338800338800338800338800338F6
:406BC000800338C00338E00378F803F0BF03F09F03C0870300000000000000000000000000000000000000000000000000E00100F000007800003800001C00000E00000050
:406C000000000000000000003F00C0FF00E0FF00F0E00138C0013880031C8003FCFF03FCFF03FCFF031C00001C00003C0000380000780000F08103F0FF03C0FF03007F008E
:406C4000000000000000000000000000000000000000000000000000001E00003F00807F00807300C0E100E0C001000000000000000000803F00F0FF00F0FF0070E0010095
:406C8000C00100C00100C00100C00180FF01E0FF01F0C00138C0011CC0011CC0011CE0013CF801F8BF0FF09F0FE0070F000000000000000000000000000000000000000080
:406CC0000000000000000000000080C30180C30180C301000000000000000000000000803F00F0FF00F0FF0070E00100C00100C00100C00100C00180FF01E0FF01F0C001C5
:406D000038C0011CC0011CC0011CE0013CF801F8BF0FF09F0FE0070F000000000000000000000000000000000000000000000000E00100C00300800700000700000E0000D4
:406D40001C00000000000000000000803F00F0FF00F0FF0070E00100C00100C00100C00100C00180FF01E0FF01F0C00138C0011CC0011CC0011CE0013CF801F8BF0FF09FBA
:406D80000FE0070F000000000000000000000000000000000000000000000000001E00003300002100002100003300001E00000000000000000000803F00F0FF00F0FF004D
:406DC00070E00100C00100C00100C00100C00180FF01E0FF01F0C00138C0011CC0011CC0011CE0013CF801F8BF0FF09F0FE0070F00000000000000000000000000000000EE
:406E0000000000000000000000000000000000000000000000000000000000000000000000000000FC0380FF0FC0FF0FE0030EF00000700000780000380000380000380086
:406E400000380000380000780000700000F00000E0030CC0FF0F80FF0F00FC03000C00000400001E00003800007000007000003F00001F00003C00007E0000FF0000E7003C
:406E800080C301C08103000000000000000000003F00C0FF00E0FF00F0E00138C0013880031C8003FCFF03FCFF03FCFF031C00001C00003C0000380000780000F08103F0C7
:406EC000FF03C0FF03007F0000000000000000000000000000000000000000000000000000000000000080C30180C30180C301000000000000000000000000003F00C0FF85
:406F000000E0FF00F0E00138C0013880031C8003FCFF03FCFF03FCFF031C00001C00003C0000380000780000F08103F0FF03C0FF03007F0000000000000000000000000089
:406F4000000000000000000000000000E00100C00300800700000700000E00001C00000000000000000000003F00C0FF00E0FF00F0E00138C0013880031C8003FCFF03FCBA
:406F8000FF03FCFF031C00001C00003C0000380000780000F08103F0FF03C0FF03007F0000000000000000000000000000000000000000000000000000000000000080C3C3
:406FC0000180C30180C301000000000000000000000000F81F00F81F00F81F00001C00001C00001C00001C00001C00001C00001C00001C00001C00001C00001C00001C0073
:40700000001C00001C00001C00001C00000000000000000000000000000000000000000000000000003C00007E0000FF0000E70080C301C08103000000000000000000F8C0
:407040001F00F81F00F81F00001C00001C00001C00001C00001C00001C00001C00001C00001C00001C00001C00001C00001C00001C00001C00001C00000000000000000003
:4070800000000000000000000000000000000000E00100C00300800700000700000E00001C00000000000000000000F81F00F81F00F81F00001C00001C00001C00001C00BF
:4070C000001C00001C00001C00001C00001C00001C00001C00001C00001C00001C00001C00001C00000000000000000000000000000000000000000000000000E0C001E0BF
:40710000C001E0C001000000000000001E00001F00003F00003F00803B00807B00C07100C0F100C0E100E0E000E0E00170C00170C003708003F8FF03F8FF07F8FF071C000F
:407140000F1C000E1E001E0E001C0E001C070038000000000000000000000000000000000000000000000000000E00001100001100001100000E00000E00001F00001F006C
:40718000003F00803B00803B00C07900C07100C0F000E0E000E0E00170C00170C001708003F8FF03F8FF07F8FF071C000F1C000E0E000E0E001C0E001C0700380000000030
:4071C000000000000000000000000000000000000000000000E00100F000007800001C00000000F0FF07F0FF07F0FF07700000700000700000700000700000700000700038
:4072000000F0FF01F0FF01F0FF01700000700000700000700000700000700000700000F0FF0FF0FF0FF0FF0F00000000000000000000000000000000000000000000000074
